:020000040000FA
:1000000080313828FF3FFF3F80310B198B1E0B28B2
:100010008731D52709002000121C14282100121C4A
:1000200014289A31C72209002000911C1D282100A4
:10003000911C1D28A331B22309002000111F26287E
:100040002100111F26288831002009002000911E60
:100050002F282100911E2F2890311C2009002000FC
:10006000111E09002100111E09009031072009000E
:10007000880188310C2822006E082300D00022005D
:100080006D082300CF002000BE10C1278031200062
:100090004F08031D8D147908031D791B5A28CF08BA
:1000A000031D5A280A30CF00CD011E30D700210091
:1000B000C201682822006E086D04031D6828200014
:1000C000CF01CD018D102100C201C20A20004112D2
:1000D00020004F08033A031D7C28CD08031D7C280F
:1000E0003A1E882822006E086D0403198828013002
:1000F000ED020030EE3B88282135353E8400A930E2
:100100000318013E8500003F2200ED00013FEE0094
:1001100020003B1F9A283B13F819781F972832308C
:100120002100DD0010302000CF00CD01CD0A2200DB
:10013000D101D10A20005B080319BC285008023AFB
:100140000319A6285008033A031DB1283A1EB12806
:10015000DB03B128A6317B268031622C5D278031FC
:10016000622C5008013A0319622C023A0319AE2896
:10017000063A0319AA28622C90315F2080312300AF
:100180006D086C040319CD2820003A1E362C01306E
:100190002300EC020030ED3B362C21006F08023AC0
:1001A0000319362CEF01EF0A362C2100C7016F0826
:1001B0002000AE00AF010530AE35AF0D890BDC2855
:1001C0005730AE070230AF3DA308031DED2823359D
:1001D000AB278031AE026B08AF3B2308023A031D08
:1001E000F7292335AB278031AE076B08AF3DF729E0
:1001F0002E08E13EEA00FF302F3DEB002B086B029A
:10020000031D04292A086A02031846292100D5087B
:10021000031D4629003022004402333003194302F3
:100220000318362920002E08083EEA0000302F3D32
:10023000EB002B02031D1E296A082A020318362927
:100240003F1D39296330AE000330AF002100CA01E1
:10025000CA0A0A302300C500C60120005C0A230038
:100260003329C535C60D890B312939292000AE0146
:10027000AF01220044084304031D622CA030C300D8
:100280000F30C4002000AE01AF01622C20003F15EA
:10029000C4302200C3000930C400622CBE15B40172
:1002A000B50178302100D900622C14302100B9004A
:1002B000BA0120003E152100C7011E301D2B350854
:1002C00034040319BE1558302300EC000230ED0051
:1002D000622C3E132100C7012000B708031D9B2993
:1002E00002303102BD30031930020318BC1F8729C8
:1002F000BC1331082200A200200030082200A10017
:1003000094311424803105308E2480315D29BC1F46
:100310008E29FF302100B900BA005D29BC1B5D2980
:10032000220022082100BA00220021082100B90081
:1003300020003E155D29370B5D2902303102BD30AA
:10034000031930020318BC1FB229BC13BC302200B1
:10035000A3000230A40094311424803106308E248E
:1003600080315D29BC1B8929BC1B5D292200240822
:100370002100BA0022002308962935083404031D01
:10038000F919C429791C622C0630CD001E30292BA6
:1003900035083404031DCE29BE15622CB708031D91
:1003A000D329F819D729370BDB29781CDB29FF3033
:1003B0002100B900BA002100C701622CD8083E2BE9
:1003C0003C302100D500D9012000CD01BF163B16DD
:1003D00021006F08031DEF03013020002B0277304E
:1003E00003192A020318622CCF01CF0A622C4D0890
:1003F000003A0319F828013A03194E29033A031960
:100400005529013A03195F29073A03196929013A65
:100410000319BD29033A0319C829013A0319DE2932
:100420000F3A0319CC29013A0319E029622C210063
:10043000C7012000411A202A4030AE000230AF0030
:10044000CD08031D2B2A01302B02CA3003192A02C2
:10045000031C622C962A4D0B332A9830D02780310A
:1004600020003E15622C4D08023A031D3C2A033041
:10047000CF00CD01BD15622CCF01CF0A2000CD01E8
:10048000622CCD08031D482A3230B400B501CC29B6
:100490004D0B552AF81E522A35083404031D622CD0
:1004A00002305C2A0C30CF00B22A4D08023A031DFC
:1004B0005E2A781F622C0330CD00622C4D08033A6F
:1004C000031D652A781F502A622C4D08043A622CBD
:1004D000CD08031D752A2200D00120003508340400
:1004E000031D622C0330CF00622C4D0B872A2C3069
:1004F000B4000130B500411221009D278031023047
:100500002B02AB3003192A020318CC29622C4D08A8
:10051000023A031D992A21009D27803135083404B1
:10052000031D962A0330CF00CD014116781BCC293C
:10053000622C4D08033A031DB42A2100C701633021
:100540002000AE000330AF003E15781FAF2A3630D2
:100550002100B9000130BA0020004116302A381FAE
:10056000622C4112CD016B2B4D08043A031DBB2AAE
:10057000381BB22A622C4D08053A031D622CBD14AB
:100580000330222C0A3057020318CC2A57080319CB
:10059000CC2ACF01CF0ACD013F1CE52A3F10003005
:1005A0002B02E13003192A02031CD82ABF11D92AD1
:1005B000BF1500302B028A3003192A02031CE22ADD
:1005C0004C30E32A90302200CF004F302000AE00A4
:1005D0000230AF002100C701112B2F082B02031D91
:1005E000F32A2E082A02031CBB18BE152100EF01B6
:1005F000003020002B02E13003192A020318042BDB
:1006000002302100EF00622C01302B02C9300319A7
:100610002A02031C622C2100EF01EF0A622CD7088A
:100620007F2B20004D08003A0319ED2A013A0319E7
:100630000F2B622CB72780315A302000292BB72787
:10064000803120003C2BC830AE000230AF00BE1419
:10065000FA30B400B501622C00303502963003192F
:1006600034023508340403183E2B03193C2BFF30A9
:100670002100B900BA00622C350834040319CC29D2
:10068000622C2218452B2214511635083404031D00
:10069000622CCF01CD01B401B5018D10622C4D0843
:1006A000003A03191A2B013A03191F2B033A0319B5
:1006B000CC29013A0319232B073A03192C2B013AB1
:1006C0000319412B622C4D08003A0319622C013AA0
:1006D0000319622C892BCD0A622C13308E248F31A2
:1006E0009327803194310424803120005116C5268F
:1006F0009931F62180312000D1156B2BD8080319D0
:10070000C02A622C4D08003A03196B2B013A0319D9
:100710006D2B033A03197E2B622CB61AE22B77302D
:10072000AE000130AF00E22B0000622CBD1ECC29D0
:10073000622CAE01AF010A302100B900BA01302AA3
:100740002100C7012000BD1ACC298230CA27803180
:10075000302A2100C7012000BD1EB42B7E302100AD
:10076000B9000430BA00D32BC830A62B2100C70132
:100770002000BD1ACC293230CA278031D80A302A4D
:100780002100C7012000BD1EBB2BFA302100B9009B
:10079000BA01D22B2100C7012000BD1EBB2BB630F1
:1007A000D027803104302200D800302ABD1ACC294D
:1007B000CD01BD16622C2218DF2B22145116C31353
:1007C000BD123C2A4D08003A0319942B013A031933
:1007D000962B033A0319992B013A0319A02B073AD8
:1007E0000319A92B013A0319B62B033A0319C02B9D
:1007F000013A0319CA2B0F3A0319B62B013A031910
:10080000B62B033A0319B62B013A0319D62B073A34
:100810000319DB2B622C781B0F2CCD01CD0A210094
:10082000DD08031D622CF819372B781C1E2CC7011C
:1008300066302000AE000230AF00622CF81E622C41
:1008400005302000CF003E2AF819F81E2B2CFF306F
:100850002100B900BA00781B3E2A622C4D08003AEC
:1008600003190B2C013A0319242C622C20004F0889
:10087000003A0319622C013A0319C22A033A0319F8
:100880008D2B013A0319D528063A03194F2B0D3A3F
:100890000319632B013A0319632B033A0319C22A84
:1008A000013A0319172A073A0319682A013A03196A
:1008B000632B033A0319412A013A0319822B1F3A89
:1008C00003192E2C2000B61C682CBE10C1278031C5
:1008D0002000C30102279C316B2480313F258031E9
:1008E000B7258031E7258031DA2680311327803122
:1008F0002000BA1D832C210063080319832CE30B0D
:10090000832C2000D1162000BA1D080021005808B1
:10091000031DD80B08002000D1150800F400072D96
:100920002100932713302200CE00080021009327D6
:1009300009302200CE0008002100C801C80A0C308E
:100940002000D80007302100BD00BE010630220083
:10095000CE0008002100C801C80A04302000D800D9
:100960002C302100BD000130BE007408023A031D86
:10097000BD2C03302200CE0008007408033A031D8A
:10098000C52C04302200CE0008007408053A031D6F
:10099000CC2C2200CE0108007408063A031D080082
:1009A0002200CE01CE0A080086278031083A0319BA
:1009B000B92C7408093A0319C12C74080A3A031DAA
:1009C000080005302200CE000800862780310D3A4D
:1009D0000319D02C74080E3A0319C92C74080F3A65
:1009E000031D080008302200CE0008008627803151
:1009F000103A0319C92C7408113A0319D02C740841
:100A0000123A031D08000A302200CE0008007408C4
:100A1000003A0319902C013A03199C2C033A03194C
:100A2000AA2C013A0319AA2C063A0319AA2C033A54
:100A30000319AA2C0E3A0319D42C013A0319D42C09
:100A4000033A0319D42C013A0319962C073A0319D7
:100A5000962C013A0319E52C033A0319E52C013AC7
:100A60000319E52C1F3A0319F62C013A0319F62C49
:100A7000033A0319F62C013A031D08009C2C3A088E
:100A80003904031D8A2D20004C0B492D0530CC0064
:100A90008A2D4C08053A03198A2DCC018A2D210094
:100AA0003A0839040319982D2000361D5A2D5B0889
:100AB0000319982DB001B101CC01CC0A982D361D37
:100AC000662DDB08031D662D0530882D2100390AAF
:100AD00003193A0A031D6F2D20004315982D20009D
:100AE000431521003A0820003102031D7B2D21000F
:100AF0003908200030020318642D982D21003A088F
:100B00003904031D862D2000CC01982D03302000D0
:100B1000CC00982D20004C08003A03194F2D013AC3
:100B200003195F2D023A0319832D063A03197E2D0E
:100B300020003C1908004F080B3A03190800D9019E
:100B4000BC302200C1000230C20020004F080C3A25
:100B5000031D08003E1BB12D28302200C100C20138
:100B60000800F4302200C1000130C200080020005B
:100B7000BE1CD52D21004A08023A0319C32D4A088C
:100B8000033A031D08002000CD2D4C08033A031939
:100B9000CD2D4C08043A031D08005B080319D32D22
:100BA0002100C90A0800CD0A08003E19C52DBE1D46
:100BB00008005B080319E22D21004908FF3A0319D8
:100BC0000800D02D4D08FF3A03190800D32D20004E
:100BD0003B1EF62D3B1205302100E300280A0319C5
:100BE000290A0319F62DA80A0319A90A2000BD1D18
:100BF000052EBD1105302100E300330A0319340A24
:100C00000319052EB30A0319B40A2000BD1C142EC3
:100C1000BD1005302100E300350A0319360A031917
:100C2000142EB50A0319B60A20003C1F292E2100F4
:100C3000A001A101A201A301A401A501A601A70190
:100C40000530E30020003C1321002A08FF3A031D71
:100C5000AA0A2000391C080039104F080319332E46
:100C60001E302100E30020004F08033A031D462EEA
:100C70004D08063A0319442E4D08043A0319442E30
:100C80004D08023A031D462E2100BF0A0030210004
:100C90002E02031D552EFF302D02031D552EFF3051
:100CA0002C02031D552EFF302B020318672E200047
:100CB0004F08033A031D672E4D080319672E2100C4
:100CC000AB0A0319AC0A0319AD0A0319AE0A0030C6
:100CD00021003202031D762EFF303102031D762ED5
:100CE000FF303002031D762EFF302F020318852EB1
:100CF00020004F080C3A031D852E2100AF0A03196E
:100D0000B00A0319B10A0319B20A2000300A031904
:100D1000310A03198E2EB00A0319B10A4F080C3A92
:100D200000300319AB2E21002302031DA12EFF303A
:100D30002202031DA12EFF302102031DA12EFF3030
:100D4000200203180800A00A0319A10A0319A20A25
:100D50000319A30A080021002702031DB92EFF3042
:100D60002602031DB92EFF302502031DB92EF930CE
:100D70002402031808000630A40701300318A50751
:100D80000318A6070318A70708002200A001603077
:100D9000A100A201CC30A300A4016E30A500A601E1
:100DA000A700A8015A30A900AA012C30AB000130DD
:100DB000AC000800F62E3E083D04031D08001E305E
:100DC000BD00BE01C80A08003E083D04031D08001E
:100DD0002000D80358080319F32E2100C803073058
:100DE000BD00BE0108002100C8010800210048081C
:100DF000003A03190800013A0319DB2E033A031DD8
:100E00000800E42E3D1021004708003A031D0800A9
:100E1000CE08031D0D2F20003D1420003D15FF308E
:100E20002100D200080020004F08033A031D562F6E
:100E30004D08063A0319242F4D08043A0319242FAC
:100E40004D08023A031D562FBA1D080021005A080A
:100E5000031DDA0B08000A30DA00DB08031D532FEC
:100E600009303F02031C362F0A30512FBF08031DE3
:100E70003C2F2000C901532FF501432F0A30750282
:100E80000318502FF50A75082A3E8400A93003186C
:100E9000013E85000008F4003F087402031C3E2F49
:100EA00075082000C9002100BF0108000A30210098
:100EB000DA001E30DB000530512F20002218622F8F
:100EC00022145116441800002000C41C732F220065
:100ED0005208F7005308F60077082100BA00760898
:100EE000B90020003E15441D7C2F2100C7012200BF
:100EF00054082000AE00AF01441E802F8D10812FBA
:100F00008D14441F0800D001D00A08002100C80138
:100F1000C80A03302000D8002C302100BD00013069
:100F2000BE0074080800C801C80A03302000D800B9
:100F30001E302100BD00BE010800C70102302000A4
:100F40002B02AA3003192A02031808002D30AE0024
:100F50000330AF0008003B3E8400A9300318013E77
:100F60008500003FEA00013FEB006A0808001A30E4
:100F7000AE000230AF002100C701FF30B900BA0057
:100F800008003E11BE11AE01AF012100B901BA0146
:100F9000C70108002100B900BA012200D8010800E9
:100FA0002100B9000330BA000800C63020009502C5
:100FB0000B11210067080319E72FE70BE72F20002B
:100FC0000C082100CB004B114B0820008C002100A5
:100FD0006808031DE80B08002000521D08002100CE
:100FE000520803190800220038084802031DFA2F8E
:100FF000370847020318080020000C1508000800F5
:1010000011131C082300BE0021001B082300BD0093
:1010100020001113B9150800F601F701F801F901D4
:1010200020308400003085003D309031012088312F
:10103000A0308400003085004F309031012088318D
:1010400020308400013085004D30903101208831FE
:10105000A0308400013085004C309031012088316F
:1010600020308400023085000E309031012088311C
:1010700021000230EF0022008430ED000330EE004A
:1010800023005830EC000230ED00200047288B137D
:1010900064009F2288316400D022883164006E266B
:1010A00088316400DF22883164000D2388316400B8
:1010B00064005B236400983102208831640062235D
:1010C00064000B178B176400983125208831640069
:1010D00071236400A53103258831640094314024D4
:1010E000883164002000391D632864008620640074
:1010F00080313B2088316400FA2364009931242137
:1011000088316400F0238831640063282000B61120
:10111000B61336113613B61021002408200720001C
:10112000DD0021002508213D2000DE0021002608E9
:10113000223D2000DF0021002708233D2000E000A1
:101140002400AD0020005F082400AC0020005E08F1
:101150002400AB0020005D082400AA002000200825
:10116000090709071E3E8400A9300318013E8500C7
:10117000003FDD00013FDE00023FDF00033FE000F3
:1011800024002D0820006002031DD62824002C080E
:1011900020005F02031DD62824002B0820005E02D9
:1011A000031DD62824002A0820005D02031C3617E0
:1011B0004C08031D431D1329220042084104031D4E
:1011C000132920004F080C3A031913294F08023A3B
:1011D000031913294F08103A031913294F080B3A22
:1011E000031913290A3059020318F828221451163A
:1011F0003E171430D50036154F08053A0319092952
:101200004F08023A031909290330CF00CD01B61661
:1012100047294F08053A031D4729CD080319431DE7
:101220004729CD0A47292000431D202922004208D2
:101230004104031D202920004F080C3A03192329DB
:101240002000401826290330CF0041294F08023AD8
:101250000319431D3829401B3829BD1A3229CD01F5
:10126000CD0A34290C30CD00BD1A4729BD164729B7
:101270004F080B3A0319431D47293D1B4729CF014E
:10128000CF0ACD01221451163E171430D5004F0855
:10129000033A031D72294D08063A031957294D08D0
:1012A000043A031957294D08023A031D72292218DE
:1012B0007229BA1D692921005F0803196929DF0B0A
:1012C0006929003020003102033003193002031C69
:1012D000BD130030200031022D30031930020318F5
:1012E0007529772914302100DF002000BD174F0831
:1012F0000C3A031DAA294D08033A0319431DAA29D4
:10130000BA1DB229210061080319B229E10BB229E3
:1013100020003108E2003008E10022003D082000F2
:10132000E10222003E082000E23B0030620203306E
:101330000319610203189E2940109F2940143108A7
:101340002200BE00200030082200BD001E30210017
:10135000E100B2292200BD01BE011E302100E100E2
:101360002000401420004F08023A0319431DE729CA
:10137000BA1DEF29210060080319EF29E00BEF29BE
:1013800020003108E4003008E30022003B08200080
:10139000E30222003C082000E43B003064020230FB
:1013A000031963020318D6294013D72940173108BF
:1013B0002200BC00200030082200BB002000BD1E1F
:1013C000E3290A30E42914302100E000EF2922004B
:1013D000BB01BC0114302100E000200040172000B8
:1013E0004F080B3A0319431D2A2ABA1D322A21003D
:1013F00062080319322AE20B322A20003108E60083
:101400003008E50022003F082000E50222004008E5
:101410002000E63B411A152A003066020430031909
:1014200065020318152A3D131F2A411E1E2A00308B
:101430006602033003196502031C132A3D173108A5
:101440002200C000200030082200BF001E30210012
:10145000E200322A2200BF01C0011E302100E2005A
:1014600020003D17003020002B021F3003192A02F4
:10147000031C412A03302B02A83003192A02031C43
:10148000432AB615B6140030310219300319300260
:101490000318512A431D4E2A361D512ACF08031D19
:1014A000522AB6122F082E04031D592A4C30AE00C2
:1014B000AF013D1C892A2E08B43EDD00FF302F3DD0
:1014C000DE002B02031D662A5D082A02031C431955
:1014D000892A4F080319892A22003908023E200070
:1014E000DD00003022003A3D2000DE002B085E02C5
:1014F000031D7C2A2A085D020318952A2B08220066
:10150000BA0020002A082200B9003C302100E60081
:10151000952ACF08031D8F2A2100420B952A3C30C3
:101520002100E6002200B901BA012000AE01AF019E
:101530002100E608031D08002000B61408007A30D8
:101540002100990098018B019101920193012000E3
:1015500091019201930181302100950022009701B1
:1015600040302F009100183020008C000330230001
:101570008C00E33021008C0020008D0123008D01C0
:10158000FD3021008D00403020008E008130210090
:101590008E00200090010F302100900064000800B0
:1015A0002000C2012200DB010E302000EE00CA0143
:1015B0002300BF01C00120003D12D501080020001A
:1015C0003B172100CA012000CC012100C9010A30CB
:1015D0002000CF001E30D700C3011030D2003F11D1
:1015E0005C082200D50020003F12BD1243133E13B9
:1015F00040144017210038082300CA002100370892
:101600002300C900200040123F17BF10BB10C013B9
:10161000BE1641122100C20108002200D00139305B
:10162000200095000B118B161810053025009A002C
:1016300020001210210012142030200098001814ED
:1016400022001D1420009A0102309C00F9309B00FA
:101650001C1591102100911428009701200093106F
:1016600028009E01200093110A302200E6000C3071
:101670002100C5002200E7000A30E800E5003C3008
:101680002100CF00C830CC000A30CE001E30200030
:10169000D7003C302100E60086302200B300013044
:1016A000B40020008D1E592B3C1403302100E500AE
:1016B00008003C10552BF901F8012200CD01210052
:1016C000C1100800083023009F00CF309B00653018
:1016D0009E0090309D001908210091160B171112E1
:1016E0000800F90120003A1DD52B5A0CF400F40C27
:1016F000740C0139F50021006A357504EA002000F8
:101700005A0E890C0139F40021006C357404EC0088
:1017100020005A080139F40021006B357404EB00F5
:1017200020005A0E890C890C0139F40021006E3515
:101730007404EE0020005A0C890C0139F4002100D9
:101740006D357404ED006A08FF3A031DA92BF815E6
:10175000AD2BEA08031DAD2BF8116C08FF3A031DF1
:10176000B32BF816B72BEC08031DB72BF8126B0838
:10177000FF3A031DBD2B7814C12BEB08031DC12BB1
:1017800078106E08FF3A031DC72B7817CB2BEE0895
:10179000031DCB2B78136D08FF3A031DD12BF817CF
:1017A000D52BED08031DD52BF81378082100690609
:1017B000F9007808F9057809F400780869067405D5
:1017C0002000B80078082100E9002000CB01F819BA
:1017D000CB0A7818CB0AF81ACB0A781BCB0A080078
:1017E0008B1310302000D2004318521543195212A7
:1017F0008B1708002200DB0120005B0803192A2C4C
:101800001F2C232688311E2E2100430B092C220079
:10181000DB1521004308023A031D102C22005B1542
:1018200021004308033A031D172C2200DB16210078
:101830004308043A031D1E2E22005B161E2E50087C
:10184000013A0319042C023A03191E2E063A031911
:10185000012C1E2EB61C372C2100C208031D372C6C
:1018600020003D1E1E2E2200DB15DB16672D2000FA
:1018700058080319F92D452688311E2E4D0B4A2C88
:101880000E30EE002200DB162000CA012300BF014B
:10189000BF0AC00120004D08023A031D902C0C30F5
:1018A0006E02031C682C0E306E020318682CCA08E6
:1018B000031D5D2C2200DB15682C4A0B622C2200D4
:1018C0005B15682C4A08023A031D682C2200DB16BF
:1018D000063020006E02031C822C08306E020318B2
:1018E000822CCA08031D772C2200DB15822C4A0BA0
:1018F0007C2C22005B15822C4A08023A031D822CA4
:101900002200DB162000EE08031D1E2E0E30EE0016
:1019100002304A02031C8E2CCA011E2ECA0A1E2E39
:101920004D08033A031D1E2E0C306E02031CAB2C17
:101930000E306E020318AB2CCA08031DA22C220025
:10194000DB15AB2C4A0BAB2C361FA92C22005B16E7
:10195000AB2C2200DB16063020006E02031CC32CC9
:1019600008306E020318C32CCA08031DBA2C2200CB
:10197000DB15C32C4A0BC32C361FC12C22005B166F
:10198000C32C2200DB162000EE08031D1E2E0E3095
:10199000EE004A0803198E2C8C2C23003F034004D0
:1019A000031D002DBF01C00120004F080D3A031D8B
:1019B000DD2C23082200B100B20120004F08083AB4
:1019C000031DE62C20082200B100B20120004F08C0
:1019D000093A031DEF2C21082200B100B2012200B8
:1019E0003108023A3204031DF72C0A30FE2C310371
:1019F0003204031DFD2C1430FE2C1E302000D700B5
:101A000020004D0B1E2E15305702031C0A2D2200FC
:101A1000DB151C2D0B305702031C122D2200DB1589
:101A20005B151C2D570803191A2D2200DB155B15B9
:101A3000DB161C2DBB19072D2000D708031D1E2EF9
:101A40001E30D7001E2ECD08031D2A2D3D1E1E2E32
:101A50002200ED2D4D0B2D2D352D4D08023A031989
:101A6000282D4D08033A031D382DBB19282D1E2E95
:101A70004D08043A03193D1E1E2E22005B15432D0E
:101A8000BB1D1E2E2200DB151E2E781F562D55085D
:101A900003194F2D3D1E1E2E22005B15EC2D3D1E01
:101AA0001E2E4F080A3A031D3D2D1E2E15305702DB
:101AB0000318422D0B305702031C602D2200672DA6
:101AC0005708031D282DBB1D1E2E2200DB155B159C
:101AD0001E2E2200510B732D20003D1E912D220041
:101AE0005B15DB15912D2000CD08031D912D411AAA
:101AF0007B2D781F7E2DD50803196D2D55080319F0
:101B0000882D3D1E912D22005B15DB15DB16912DD6
:101B10002200DB155B152000361B3B1C912D22009B
:101B20005B162000411A1E2EB708031DA22D4D087A
:101B30000319A22DBC1F402D2200DB1520003B18ED
:101B40005E2D1E2E370B1E2E4D0803191E2EBC1F98
:101B5000AF2D22005B1520003B18422D1E2EBB1915
:101B60005E2D1E2ECD080319B72D4D0BB72D3B183A
:101B70001C2C1E2E3A1EBD2DCE0A04304E02031818
:101B8000CE01CE080319282D4E0BC72D422D4E082D
:101B9000023A0319422D4E08033A0319282D1E2E2E
:101BA000CD08031DE22D21005D080319DB2D220065
:101BB000DB155B15ED2DF819422D78185E2DF81AFE
:101BC000282DD72D4D0B1E2E21005D08031DD72D6E
:101BD000F819F81EEF2D2200DB15DB161E2EF81962
:101BE000422D78185E2DF81E1E2E20003B181C2C4E
:101BF000282D4F08013A0319452D033A0319B22D38
:101C0000013A0319692D063A0319BA2D0D3A031941
:101C1000CD2C013A0319CD2C033A0319452D013A75
:101C20000319402D073A0319232D013A0319CD2C2E
:101C3000033A03193E2C1E3A0319D02D22005B08EB
:101C40002000C200080021004908023A031D0800D4
:101C5000352E22005B16080022005B1708002200C8
:101C6000DB1508002200DB16080020004708003AB8
:101C70000319292E013A03192C2E033A03192F2E8A
:101C8000013A0319322E073A08002100480B0800D8
:101C9000562EDB1508005B150800DB160800DB1567
:101CA0005B150800DB15DB165B15080022004E08EB
:101CB000003A0319492E013A03194B2E073A03192A
:101CC000522E0E3A03194F2E013A0319522E033A9F
:101CD00003194D2E193A031D0800522E23009501B9
:101CE0002000C8016400FB278831F52788310630C1
:101CF000F4004808762788316407503E2F27883142
:101D000081002000E40A06306402031C752E0430B2
:101D1000F400D330372788312300570820002906E4
:101D2000031D982E23005808200028060319E301FC
:101D3000C80A6308FF3A031DA12E02304802031CA3
:101D4000722EE308031DA72E82278831A92E932720
:101D50008831C8016400FB278831F52788311930A4
:101D6000F40048087627883164071E3E2F27883103
:101D700081002000E40A19306402031CAD2E1730E4
:101D8000F400D3303727883123006A082000290661
:101D9000031DD02E23006B08200028060319E30141
:101DA000C80A6308FF3A031DD92E02304802031CFB
:101DB000AA2EE308031DE02EA33113238831E22E5F
:101DC0009B2788312000C8016400FB278831F52754
:101DD00088310F30F40048087627883164072F27B0
:101DE000883181002000E40A0F306402031CE72ED2
:101DF0000D30F400D33037278831230060082000ED
:101E00002906031D092F2300610820002806031955
:101E1000E301C80A6308FF3A031D122F023048028B
:101E2000031CE42EE308031D182FB42788311B2F51
:101E30008631C526883164002000E4016408203E14
:101E40008600023087006408F63E2F278831810023
:101E50002000E40A0A306402031808001E2FF40070
:101E600023009100920115141308F50008002000CA
:101E7000E000AA30A9006008860001308700010850
:101E8000A800E201E20A7408023EDD0000300318F7
:101E90000130DE00803A803C031D502F5D08620255
:101EA000031808007408200062020318602F6208FB
:101EB0006007DD008600013087000108DF00612F28
:101EC000DF01E1013B11A91B3B15A835A90DDF1B63
:101ED0002814DF353B1D702F8030A9060530A80679
:101EE000E10A083061020318422F622FDE00DD0193
:101EF00074085E18DD07F435DE36DE08031D782F22
:101F00005D080800230053082000A00023005408A7
:101F10002000A100230055082000A200230056083D
:101F20002000A300080002302000A000A101A201AF
:101F3000A301A30A08002100AF01B001B101B20161
:101F4000AB01AC01AD01AE01AA01A001A101A2014A
:101F5000A301A401A501A601A701A801A901B3013C
:101F6000B401B501B6010800230053082200A00007
:101F700023005408F7005508F60077082200A20055
:101F80007608A10023005608F7005708F6007708E6
:101F90002200A4007608A30023005808F70059087F
:101FA000F60077082200A6007608A50023005A084C
:101FB000F7005B08F60077082200A8007608A70063
:101FC00023005C08F7005D08F60077082200AA00ED
:101FD0007608A90023005E08F7005F08F60077087E
:101FE0002200AC007608AB0008006408D33E8600EF
:101FF000013087000800FF302000E300E401080002
:10200000FF3F640080010131890B02280034220067
:10201000620821005402031818285408A03E8600C4
:1020200001308700010823009A002100D40A08002B
:1020300011120230D100080023001D1921289D1C17
:1020400028281D1219082100D30123001D1608009D
:102050001908F0002000B91F391B080014302100B6
:10206000D000D308031D3E2870080A3A031D08005B
:1020700070082300A0002100D30A0800530B4F284A
:102080001930700203184D2870082300A1002100A8
:10209000D30A70082200E1000800D30108005308A9
:1020A000A03E86000130870070088100D30A5308E3
:1020B00022006102031808002000B9170800B61CAE
:1020C0006328CF01CD01781B67282200D101791F39
:1020D00070282000411E70280B30CF00CD018F28C2
:1020E000791F7D282000411A7D284F08033A031DDF
:1020F0008F28CD0803196C288F282000381B8328CF
:10210000790803198F284F080B3A031D8F284D08B3
:10211000023A03198F280B30CF000230CD00CB08D4
:10212000031DA2284F080E3A0319A5284F08083AA4
:102130000319A5284F08093A0319A5284F080D3A95
:102140000319A52896302100D70020004F08033A34
:102150000319F91EB428781F411AB4284D08031931
:10216000B4282200D001D00A20004F08033A0319F6
:10217000BD284F080B3A031DC828B81A411EC828AD
:10218000781BC82841120C30CF00CD01CD0A592947
:102190004F080E3A0319D8284F08083A0319D828CF
:1021A0004F08093A0319D8284F080D3A031DE128B2
:1021B0002100D708031DE12803302000CF00CD0106
:1021C000592920004F08033A0319F91EEF28781FF8
:1021D000411AEF28CD08031DEF280E30DE284F08E6
:1021E000033A0319B81E0B29781B0B292200D008CB
:1021F000031D0B2920004F08033A031D5929CD0860
:10220000031D5929781FC3280C30CF00CD011E3083
:10221000B400B501592920004F080E3A031D2429A6
:102220004D08023A031D24294B0B5929F91D1B297E
:102230000D30CF00CD01791C20290830CF00CD0111
:10224000F91E59290930DE284F080E3A031D3A2994
:102250004D08033A031D3A294B08023A031D592938
:10226000F91D35290F30CF00CD01F91E5929BD12B6
:10227000C31759294F080C3A031D4F29F91D791826
:102280004329B81E4F2902304D02031C492941162B
:102290004A2941120C30CF000530CD0059294F0892
:1022A0000C3A0319381F59290C30CF00CD01CD0A43
:1022B00041124F08083A031D8429CD08031D6529E2
:1022C000CB08031D8429CD0A84294D0B8429F91DCF
:1022D0006D294B0B6D29A0017A29791C74294B0BB0
:1022E0007429A001A00A7A29F91E80294B0B8029A4
:1022F0000230A000113084318E2490312000CD0AAC
:1023000004249031200051164F08093A031DAF29CB
:10231000CD08031D9029CB08031DAF29CD0AAF2995
:102320004D0BAF29F91D98294B0B9829A101A5291F
:10233000791C9F294B0B9F29A101A10AA529F91EF0
:10234000AB294B0BAB290230A100123084318E2413
:1023500090312000CD0A04249031200051164F08FE
:102360000D3A031DDA29CD08031DBB29CB08031D37
:10237000DA29CD0ADA294D0BDA29F91DC3294B0BCD
:10238000C329A301D029791CCA294B0BCA29A3014F
:10239000A30AD029F91ED6294B0BD6290230A30057
:1023A000103084318E2490312000CD0A04249031E5
:1023B000200051167818DE29F81DEC294B0BEC296A
:1023C0004F08033A031DEC294D08043A0319F0297C
:1023D0004D08023A0319F0291E302100DE00FC29C5
:1023E00021005E080319FC292000BA1DFC292100E8
:1023F000DE0BFC292000BC172000411E0C2A0230F5
:102400002B02AA3003192A0203180C2A41120B309E
:10241000CF000230CD00202A4F080B3A0319202AA2
:102420004D08031D411E202A02302B02AB30031938
:102430002A020318781B202A41160330CF00CD0151
:102440004F08033A031DE12ACD08031D4B2A210042
:1024500041102000411E781BE12AF919312A791C0C
:10246000342A4B0303193A2A5319382A531CE12AF8
:10247000401DE12ABC13F919402A5319401D432A73
:10248000B701CD0AE12A7918482A5318401DE12ADC
:10249000B701B70A412A07304D020318C22A79084A
:1024A000031DBC1B5D2A4D08063A03195D2A4D0821
:1024B000053A03195D2A0730CD007818612AF81D06
:1024C0006B2A4D08063A031D6B2A21004114063081
:1024D0002000CD00E12A781CF819E12ABC1FE12A6E
:1024E000BC1314249031B708031D9B2A003031021D
:1024F0004130031930020318822A41302200A10022
:10250000A201962A02303102BD3003193002031CA9
:102510008F2ABC302200A1000230A200962A310886
:102520002200A200200030082200A10005308431E2
:102530008E249031E12A370BE12A003031024130FC
:10254000031930020318A92A41302200A300A40174
:10255000BD2A02303102BD3003193002031CB62AF5
:10256000BC302200A3000230A400BD2A31082200A2
:10257000A400200030082200A300063084318E24FD
:102580009031E12A4D08053A031DCA2AF91DE12AB6
:10259000BE15E12A4D08063A031DD12AF81DC82AA6
:1025A000E12A4D08093A031DE12A00303102413089
:1025B000031930020318DF2A2100411CE12A200000
:1025C0003B16F81AF81DEF2A20004B08023A031DAB
:1025D000EF2A4F08033A03194D080319F32A323042
:1025E0002100D600032BBA1D032B21005608031926
:1025F000032BD60B032B3C302000B400B501053073
:10260000CF00CD01CE012000C31F172BBD1A0F2B09
:1026100023302100C60004302200D900132B2100F2
:10262000C6012200D90102302000CF00CD014F08A1
:10263000023A031D522B4D080C3A031D202B3C1768
:10264000CD080319781F2A2B4B0B2A2BCD0AB0017A
:10265000B1014A2B4D08093A031D392B21004608C8
:102660000319392B2000BD1A392B2100C60307306E
:10267000482B20004D080B3A031D4A2B2200590815
:1026800003194A2B2000BD1A4A2B2200D903093016
:102690002000CD00F91E522B20004D0B522BCD0AED
:1026A000B001B101F50120004F080C3A031D5C2B6D
:1026B000F501F50A6430902B4F080B3A031D702B7F
:1026C000F501F50A411E6A2B50302300C700C801EE
:1026D0003230B12B0A302300C700C8010430B12BBF
:1026E0004F08023A031DC92B4F08023A031DC92B9C
:1026F0004D08023A0319C92BF501F50AB42B200045
:102700003C1E842B1A30A72B2130AD2B20003C1E01
:102710008F2B50302300C700C8010630B12B60302A
:102720002300C700C8010830B12B20003C1E9A2BA3
:102730003230A72B3B30AD2B20003C1EA12B50305C
:10274000A72B5930AD2B20003C1EAC2B12302300A0
:10275000C700C8010C30B12B17302300C700C801D7
:102760000F30CD00CE01C92B22005808003A0319C2
:102770007F2B013A0319862B033A0319952B013A53
:1027800003199C2B073A0319A32B03302000CF0019
:10279000CD018B13750BCF2B2000BB17D12B200045
:1027A000BB13230048082100B8002300470821007C
:1027B000B70023004E08CC004D08CB008B1720003B
:1027C000BA1DEA2B21005C080319EA2BDC0BEA2B6B
:1027D000200051162000DB080319D0014F08033AEE
:1027E00003194D080319F92BA0302200C3000F3044
:1027F000C4002000580803190800C8302100CC008C
:102800002000BB113B10080020082300D30020004B
:1028100021082300D400200022082300D500200036
:1028200023082300D600080005302100D800073017
:102830002000CD000800A0302300A0000E30A10031
:10284000F030A2000F30A300F5017508A43E860009
:10285000013087007508203E8400023085000008A2
:102860008100F50A0A307502031C252C230021087B
:10287000E8249431F400F327943174088100E52FA3
:102880002000B91F080023002108E8249431EB0040
:10289000F3279431010820006B06031DE32C23006D
:1028A00023082000D400CC2C2108043A031DE32C7B
:1028B000200054080F3A031DE32CFC249431E32C30
:1028C0002108043A031DE32C200054080F3A031D8D
:1028D000E32C5F259431E32C2108053A031DE32CFA
:1028E000200054080F3A031DE32C02302200EA00B6
:1028F000230024082000D3005D2C2108093A031D81
:10290000E32C200054080F3A031DE32C0230DB00B7
:102910000330D000230024082000C4002300250831
:102920002100C300230026082200D200230027082C
:102930002200D300230028082200D4000230200007
:10294000B906B9185D2C692C2108073A031DE32C40
:10295000200054080F3A0319B12C5408F03A031D13
:10296000E32CAA259431E32C21080A3A031DE32C19
:10297000200054080F3A031DE32C14279431E32C54
:102980002108043A031DE32C200054080F3A031DCC
:10299000E32C1B249431E32C23002208603A031912
:1029A000542C103A0319602CF03A03197D2C023A8A
:1029B00003196C2C123A0319B42C053A0319A42CF0
:1029C000653A0319C02C2100D3012000B913080077
:1029D0002000DD005530DE00DF015D085F020318D6
:1029E000FA2C5F08A03E8600013087000108DE0651
:1029F000DF0AED2C5E080800F401A0302300A000DF
:102A00001330A1006030A2000F30A3005225943192
:102A10004C082300A4002000BC1B741421004118A2
:102A2000F4142000361B7415C31BF41536197416E4
:102A300074082300A500A601A701A80120004F08E3
:102A40002300A90020004D082300AA0021003A0815
:102A5000F7003908F60077082300AB007608AC00D1
:102A600020003108F7003008F60077082300AD0099
:102A70007608AE0020002B08F7002A08F600770839
:102A80002300AF007608B0005008F7004F08F600AA
:102A90007708B1007608B2002108E82494312300B9
:102AA000B300E52F2200CC01F8194C147818CC148F
:102AB000F81A4C16781BCC16F81B4C17080020008F
:102AC000E001E101E201A0302300A0001030A100EC
:102AD0007030A2000F30A3002000B61B6214361B1A
:102AE000621536196216B6186217B619E21762082F
:102AF0002300A400A50120004319601543186014A9
:102B000042196115C219E115421A6116C21AE1167D
:102B100060082300A600200061082300A700200011
:102B20004F082300A80020004D082300A900220020
:102B300056082300AA00AB0122005A082300AC006B
:102B4000AD01AE010B30AF002108E8249431230021
:102B5000B000E52F230026082000E500FA27943175
:102B6000A030A0000630A1009530A2000F30A300D5
:102B70002000EA0165086A020318F32D04302300DF
:102B8000A10720006A08DD00DE017608DD0777086E
:102B9000DE3DFD2594316008E9005F08E8005E082D
:102BA000E7005D08E6006A0809070907A63E8600F7
:102BB00001308700690881006A0809070907A73EF4
:102BC0008600680881006A0809070907A83E860090
:102BD000670881006A0809070907A93E8600660898
:102BE0008100EA0ABA2D23002108E8249431F40078
:102BF000F327943174088100E52FE101E201E3013C
:102C0000E40154080F3A031D0B2F00305E02073019
:102C100003195D020318412E5E085D04031D132E87
:102C200022002008A22E5D035E04031D1E2E22003A
:102C300021082000E10022002208C92E5D08023A86
:102C40005E04031D2A2E220023082000E10022003A
:102C50002408C92E5D08033A5E04031D312EE101EC
:102C6000082F5D08043A5E0403192F2E5D08053A0B
:102C70005E0403192F2E5D08063A5E0403192F2EF9
:102C80000B2F00305E02323003195D020030031C4E
:102C90006C2E5E02363003195D0203186B2E5D0840
:102CA000323A5E04031D562E2008072F5D08333A82
:102CB0005E04031D5D2E2108072F5D08343A5E0473
:102CC000031D642E2208072F5D08353A5E04031D9C
:102CD0000B2F2308072F00305E02643003195D02BA
:102CE0000030031CDF2E5E026C3003195D020318F6
:102CF000DE2E5D08643A5E04031D8F2E210023083A
:102D00002000E400210022082000E3002100210827
:102D10002000E200210020082000E1000B2F5D08C8
:102D2000653A5E04031D9B2E210028082000E10067
:102D300021002908C92E5D08663A5E04031DA42EF1
:102D400021002A082000072F5D08673A5E04031D52
:102D5000AB2E0B30D22E5D08683A5E04031DB22EF6
:102D60000F30D22E5D08693A5E04031DBE2E21008D
:102D700033082000E10021003408C92E5D086A3ABA
:102D80005E04031DCC2E210035082000E100210047
:102D900036082000E200092F5D086B3A5E04031D2F
:102DA0000B2F0430A03E86008701403FE100413FE9
:102DB000E200423FE300433FE4000B2F00305E029D
:102DC000C83003195D02031C0B2F00305E02CC30AB
:102DD00003195D0203180B2F5D08C83A5E04031D3A
:102DE000F32E0B30072F5D08C93A5E04031DFA2E3F
:102DF0001E30072F5D08CA3A5E04031D012F0830FC
:102E0000072F5D08CB3A5E04031D0B2F0D30E10048
:102E1000E201E301E4016408E0006308DF00620806
:102E2000DE006108DD000800FA2794312608200042
:102E3000E600230027082000E500230028082000E2
:102E4000E400230029082000E300A0302300A000B4
:102E50000730A1009030A2000F30A30077082000B7
:102E6000DE007608DD006608E2006508E10064081F
:102E7000E0006308DF004F2794310038031D432F23
:102E80002300A601462FFF302300A6002108E824D6
:102E90009431F500F327943175088100E52FFF3058
:102EA000F40000305E02073003195D02031C5D2F41
:102EB0005D08643A5E04031DB12FF4010530210062
:102EC000D80020005E085D04031D6A2F5F08220001
:102ED000A000E32F5D035E04031D732F5F08220033
:102EE000A100A201E32F5D08023A5E04031D802FBA
:102EF00060082200A40020005F082200A300E32F46
:102F00005D08033A5E04031D8D2F60082200A600B1
:102F100020005F082200A500E32F5D08043A5E044C
:102F2000031D9A2F60082200A80020005F082200DD
:102F3000A700E32F5D08053A5E04031DA72F600874
:102F40002200AA0020005F082200A900E32F5D08EC
:102F5000063A5E04031DE32F5F082200AB00AC01BC
:102F6000E32F00305E02323003195D02031CE32FB1
:102F700000305E02363003195D020318E32FF401BE
:102F800005302100DC0020005D08323A5E04031D9C
:102F9000CC2F5F08A000E32F5D08333A5E04031DC9
:102FA000D42F5F08A100E32F5D08343A5E04031DAF
:102FB000DC2F5F08A200E32F5D08353A5E04031D95
:102FC000E32F5F08A30074080800210A2200E20032
:102FD000200039172100D401D40A230020089A00C8
:102FE00021001116080023002108A03E86000130B0
:102FF0008700080023002408F7002508F6000800D1
:10300000FF3FFF3F20003F14C5013612220091010F
:1030100092019301940197019801D03021009E0004
:1030200020004508413E8400A9300318013E850078
:10303000000821009D00000021001D142000111334
:10304000210011170530E400080020003A11BA11E0
:103050003A12BA123A1C8D283A103A1521004F083C
:1030600003193628CF0B36282000391521005108C6
:1030700003193E28D10B3E282000391321005008A7
:1030800003194528D00B4528D3012000391D8D2870
:10309000560803194C28D60321004E08031DCE0301
:1030A0003E083D04031958280130BD020030BE3BE4
:1030B00022005D08031DDD03420841040319642852
:1030C0000130C1020030C23B4408430403196C289C
:1030D0000130C3020030C43B21004D08031DCD0365
:1030E000CC032000BB113B103D121930F40021002D
:1030F0004C080B219831F500F518BB1575183B14D9
:10310000751C872803307502031C87283D16210093
:10311000CC08031D8D28C830CC002000BA1C080044
:10312000BA10BA1521005D08031DDD032000391D0A
:10313000E528350834040319A1280130B402003011
:10314000B53B22006408031DE4036308031DE30389
:1031500021005F08031DDF0322005C08031DDC0360
:1031600020005708031DD7035508031DD50322006F
:10317000340833040319C0280130B3020030B43BD3
:1031800020006E08031DEE0321005708031DD7031E
:1031900059080319CE28D9030430CF280530200060
:1031A000DC004F08033A031DE5284D08063A0319D1
:1031B000E1284D08043A0319E1284D08023A031D9D
:1031C000E52821005B08031DDB032200E80B080053
:1031D0000A30E80020003A16391D00292100550860
:1031E0000319F328D5036608031DE60320004015E4
:1031F00022006A080319FE28EA0300292000401172
:103200002200E50B08002000BF1403302200E50077
:103210002000BA1608002000DD00DF017408031941
:103220002229DE01DE0AF41B1729F4351229DF35C5
:1032300074085D02031C1F297408DD025F14F43654
:10324000DE0B17295F0808002000511A5118402989
:10325000D11C51194029D1145112C601C801943111
:10326000042499310430F400D3308F313727993159
:10327000200029082300D700200028082300D800B8
:103280002000D11C6229D608031D62290630F400F3
:1032900048088F31762799314607503EBF22993131
:1032A000E121993103302000D600C60A06304602DB
:1032B000031C6229C80A0230480203186129C601AA
:1032C0006229D110D11951187B29D11C51197B29A0
:1032D0005114D111C601C801F6210D30F400D330CC
:1032E0008F3137279931200029082300E000200082
:1032F00028082300E1002000511C9C29D608031D4A
:103300009C290F30F40048088F3176279931460701
:10331000BF229931E121993103302000D600C60A3D
:103320000F304602031C9C29C80A023048020318C9
:103330009B29C6019C295110D11A5118B529D11CBD
:103340005119B5295115D112C601C80137221730BC
:10335000F400D3308F31372799312000290823001A
:10336000EA00200028082300EB002000511DD72987
:10337000D608031DD7291930F40048088F31762765
:10338000993146071E3EBF229931E1219931033020
:103390002000D600C60A19304602031CD729C80AE5
:1033A000023048020318D629C601D7295111511CF1
:1033B000D1180800511D121E080012122300151109
:1033C0000800DF00750823009100920120005F08CB
:1033D00023009300200012128B1323001515553083
:1033E0009600AA30960095148B170800220020083A
:1033F0002300D30022002208F7002108F6007708F6
:103400002300D4007608D50022002408F700230802
:10341000F60077082300D6007608D7002200260899
:10342000F7002508F60077082300D8007608D900B1
:1034300022002808F7002708F60077082300DA00A2
:103440007608DB0022002A08F7002908F600770832
:103450002300DC007608DD0022002C08F7002B0892
:10346000F60077082300DE007608DF000800210060
:1034700023082000A700210022082000A600210028
:1034800021082000A500210020082000A400260813
:103490002300D300200026082300D40020002508A4
:1034A0002300D500200024082300D6000430A03ECD
:1034B00086008701B3229931D70020002608230017
:1034C000D800200025082300D9002000240823006C
:1034D000DA0021002A082300DD000B30A03E860020
:1034E000B3229931DE00200026082300DF002000EF
:1034F00025082300E000200024082300E1000F300D
:10350000A03E8600B3229931E20020002608230065
:10351000E300200025082300E40020002408230005
:10352000E50021003408F7003308F60020002508E4
:103530002300E600200024082300E70021002908DA
:10354000F7002808F60077082300DB007608DC0087
:1035500021003608F7003508F60077082300E80058
:103560007608E9000800403F2000A400413FA50084
:10357000423FA600433FA700260823000800F500AD
:103580004608D33E8600013087000108080020006D
:103590004111250018082200C50025001908220045
:1035A000C60046082000B300220045082000B200F3
:1035B000230051082000B202230052082000B33B30
:1035C0001F303302403003193202031CE92A3C1A2F
:1035D000F42A19303302C83003193202031CF22ACC
:1035E0003C1EF42ABC1AFC2A220046082300D20002
:1035F000220045082300D10025001A08053A031DC2
:10360000062B04309A0020004115082B05309A0043
:1036100020001210BC1A3D2B19303302C830031998
:103620003202031C342B2E303302E13003193202F4
:103630000318342B23303302D33003193202031C16
:103640002B2B2200DF01DE0A1E305E02031C342B0E
:103650004A249A31342B2200DE01DF0A1E305F0239
:10366000031C342B54249A312200E00AC830600233
:10367000031C402C4A249A31402C1F303302403026
:1036800003193202031C4D2B2E303302E130031993
:10369000320203184D2B3C1A5C2B19303302C83010
:1036A00003193202031C402C273033021130031956
:1036B0003202031C3C1A402C220057082100E8006B
:1036C0002000521DD72B3F1E6D2B3F125E249A31D6
:1036D0006B2BC735C80D890B692B220055082000BC
:1036E0005C060319782B5C082200D50066249A3109
:1036F0000A30F000F10120005C0A802BF035F10D5A
:10370000890B7E2B220036087106031D892B350894
:1037100070060A30031D972BC700C80120005C0A01
:103720002200942BC735C80D890B922B0A30F0006C
:10373000F10120005C0A9E2BF035F10D890B9C2BCA
:103740007008FF3EF200FF30713DF3002200480296
:10375000031DAC2B72084702031CB22BC701C80122
:1037600066249A313708FF3EF000FF30383DF10003
:103770004802031DBD2B70084702031CC42B210007
:1037800052080319C42BD2032200C70A0319C80A1E
:1037900038084802031DCE2B370847020318D42BE4
:1037A0002100D208031DE42B20005211E42B5E24DB
:1037B0009A31DC2BC735C80D890BDA2BFF30C707D0
:1037C000031CC803B701B8012000521A2B2CBB1FE1
:1037D000222C2100380823004A06031DF32B210068
:1037E0003708230049060319002C2100380823005C
:1037F000CA00210037082300C9002200C901CA01FC
:1038000022004A084904031D0D2C2100380822001B
:10381000CA00210037082200C9000130C902003067
:10382000CA3B20003C1523004C0822004A02031D1D
:103830001D2C23004B0822004902031C302C2000C1
:1038400052162F2C2300C901CA012200C901CA0146
:1038500020003C15302C2200C901CA0120003C1177
:1038600020000C082100CB00EB30CB0520005208D3
:103870002100CB044B0820008C0002302100E7001F
:103880002200E70B0800210045082200E700200085
:10389000BA1408002000BC163C160A302100C500EE
:1038A0002D302200D70008002000BC163C120C303E
:1038B0002100C50026302200D70008000A3022006F
:1038C000C700C80120005C0A220008003608B800C2
:1038D0003508B7000800023020002B02973003198A
:1038E0002A02031C7E2CDB08031D7E2C4F08053AA0
:1038F00003197E2C4F080C3A031D802CB61D852C15
:1039000043102300C501C601902FB61D3D1CEB2DB1
:103910004F08033A031D982C4D08063A03199E2CB4
:103920004D08043A03199E2C4D08023A03199E2CA7
:103930004F080B3A031DEB2D4D0BEB2D2100C70853
:10394000031DEB2D20002F082E040319EB2D2E0A4A
:1039500003192F0A0319EB2DBB102E082E3ECA2780
:103960009C312E08031CD52DDA3ED5279C31031C33
:10397000D42D4314E5279C31EE279C31031DC22C26
:10398000FD302C020318CD2C2000C4279C31031DD0
:10399000CB2C04302C020318792D20002E080F3E6A
:1039A000CA279C310318792D2E08F13ED5279C316A
:1039B0000318792D2100BB01BC012000490821001A
:1039C000C4002000C4279C31031DE82C01302C02C8
:1039D000031C2C2D2000C4279C31031DF12C033027
:1039E0002C02031CFB2C200049080319FB2C49085E
:1039F000FF3E2100C4002000C4279C31031D022D7E
:103A000005302C02031C112D200049080319112D2B
:103A1000490B0D2D2100C401112D4908FE3E210046
:103A2000C4002000E01F192D0230210044020318B9
:103A3000C4032000DF279C31031D202D10305F02BE
:103A4000031C632D0930210044020318632DD9089B
:103A5000031D632DC40A622D2000EE279C31031D37
:103A6000332DFE302C0203183D2D0A302000490270
:103A700003183D2D490A2100C4002000EE279C3187
:103A8000031D442DFC302C020318552D0A30200054
:103A900049020318552D08304902031C512D0A30E4
:103AA000532D4908023E2100C4002000DF279C312D
:103AB000031D5C2D01305F02031C632D0A302100C1
:103AC0004402031CC40A20004935CC3E8400A830BF
:103AD0000318013E8500003F2300C500013FC600DA
:103AE00020005C0A2300762DC535C60D890B742D88
:103AF000902F200049082100C400CD08031DA22DED
:103B0000C830CD002000DF279C31031D892D0730F0
:103B10005F0203189A2D20006008803AFF007F3072
:103B20007F02031D952DFA305F02031C9A2D2100A0
:103B3000BB01BC0120005F082100BB07200060081A
:103B40002100BC3DFA279C31031DA82D01303B020A
:103B5000031CBB2D2100FA279C31031DB12D0F3012
:103B60003B02031CBB2D0A30200049020318BB2D69
:103B7000490A2100C4002100BC1FD12D3C08803A15
:103B8000FF007F307F02031DC72DF2303B02031878
:103B9000D12D200049080319D12D4908FF3E2100ED
:103BA000C40021004435652D2E082E3ECA279C31C5
:103BB0000318DF2D4314AD1F812C0330E72D2E0891
:103BC000DA3ED5279C310318812C43140A30230098
:103BD000C500C601702D9D279C31003A0319F22DB6
:103BE0003D18F62D2300C501C601422FE5279C3163
:103BF0005B080319FF2D5008043A0319042E2E0AFE
:103C000003192F0A031D112E0A302300C500C60117
:103C100020005C0A23000E2EC535C60D890B0C2E24
:103C2000422F4F080C3A031D262E4D08033A031D60
:103C3000262EE10161350A3E8400A930B7279C3168
:103C4000031C242EE10A1A2E6108052E4F030319C6
:103C5000322EBB1C262F02302B021A3003192A02E7
:103C60000318252F22004F0820002E07DD002F0803
:103C700003182F0ADE002300440820005E02031D03
:103C8000452E2300430820005D020318BF1D572E58
:103C90003F1F572E0A302300C500C60120005C0AD2
:103CA0002300542EC535C60D890B522EF52EDF2765
:103CB0009C31031D5D2E74305F02031CC22E200058
:103CC0003F1F642E3F163F13E1016135E23E840041
:103CD000A830B7279C31031C6F2EE10A652EC4273C
:103CE0009C31031D752E21302C02031C7A2E2000DE
:103CF000E101BF2E2000C4279C31031D812E193005
:103D00002C02031C922E2000C4279C31031D8A2EF6
:103D100021302C020318922E200061080319922EE4
:103D2000E103BF2E2000C4279C31031D992E1030C3
:103D30002C02031CA42E2000C4279C31031DA22E9C
:103D400019302C02031CBF2E2000C4279C31031DF8
:103D5000AB2E10302C020318B62E2000AD1BB62E51
:103D6000083061020318B62EE10AF32E2000AD1FC1
:103D7000BF2E073061020318BF2E0330E107200079
:103D800061084B2E013020002B02F33003192A0268
:103D90000318E92EE1016135E43E8400A830B7271D
:103DA0009C31031CD52EE10ACB2EC4279C31031D68
:103DB000DB2E05302C02031CE32E200061080319C2
:103DC000E32EFF30E1072000F4279C310319C60AD7
:103DD0004E2EC4279C31031DEF2E03302C020318F6
:103DE000772E2000E101E10ABF2E023020002B02D5
:103DF000123003192A02031C0A2F2D08803AFF00F3
:103E000080307F02031D062F01302C02031C0A2F75
:103E10002000BB14220034083304031D422F01305C
:103E200020002B02D13003192A02031C422F2D0837
:103E3000803AFF0080307F02031D202F01302C02CA
:103E4000031C422F2000BB14422FBB10E10161353F
:103E5000F83E8400A830B7279C31031C312FE10ABB
:103E6000272FF4279C310319C60A20005C0A23007F
:103E70003B2FC535C60D890B392F2000BF1E422FA1
:103E8000BF123F162000B61D492F03302100CA0083
:103E9000822F2F082E04031D3D1C502FBD1B822F87
:103EA0002100CA01822F20002F082E04031DB619FD
:103EB000902FBD1F902F2F082B02031D612F2E085E
:103EC0002A02031C682F2E0A03192F0A031D6E2FC6
:103ED0003D1C902F2100CA01CA0A902F02302100F8
:103EE000CA00902F200043142F082B02031D7A2FA5
:103EF0002E082A02031C902F2E0A03192F0A031DD5
:103F00006E2F902F21004A08003A0319532F013ACF
:103F10000319722F033A0319532F013A0319532F30
:103F200021001210230046082200B6002300450895
:103F30002200B50021001214080020002F08F5000F
:103F40002E08F40075082B02031DA82F74082A02FE
:103F5000031CAF2F2E0A03192F0A031D00342F084C
:103F60002E04031DBD1F0034B61D01340034031898
:103F7000013E8500003FDD00013FDE006002031DC1
:103F800008005D085F0208002D08803AFF008030BD
:103F90007F020800DD0000302F3DDE002B085E02AE
:103FA000031D08002A085D020800DD00FF302F3DD8
:103FB000DE002B02031D08005D082A0208006008CD
:103FC000803AFF0080307F0208002F08E0002E08B2
:103FD000DF002A08DF022B08E03B08002D08803AAA
:103FE000FF007F307F02080061082300C500C60182
:103FF000C50A08003C08803AFF0080307F020800B4
:10400000FF3FFF3FFF3FFF3FFF3FFF3FFF3FFF3FC0
:10401000FF3FFF3FFF3FFF3FFF3FFF3FFF3FFF3FB0
:10402000FF3FFF3FFF3FFF3FFF3FFF3FFF3FFF3FA0
:10403000FF3FFF3FFF3FFF3FFF3FFF3FFF3FFF3F90
:10462000FF3FFF3FFF3F230053082000A600230069
:1046300054082000A600230055082000A5002300F0
:1046400056082000A40027082100A3002000260807
:104650002100A200200025082100A100200024083C
:104660002100A000230057082000A60023005808BE
:104670002000A600230059082000A50023005A08A6
:104680002000A40027082100A70020002608210000
:10469000A600200025082100A500200024082100F4
:1046A000A40023005D082100AA0023005E0820006A
:1046B000A60023005F082000A60023006008200059
:1046C000A500230061082000A40027082100AE00F7
:1046D000200026082100AD00200025082100AC00A4
:1046E000200024082100AB00230062082000A6005F
:1046F000230063082000A600230064082000A50012
:10470000230065082000A40027082100B200200033
:1047100026082100B100200025082100B00020005B
:1047200024082100AF0023006608F7006708F600A0
:1047300077082100B4007608B30023006808F7006A
:104740006908F60077082100B6007608B500230056
:104750005B08F7005C08F60077082100A9007608DE
:10476000A8000800200091100C3021008E04FB2BC3
:104770009B302000DA050E18DA168E1621008E12F4
:104780000E162000C21DC82B0E1121000E11CB2BBE
:104790000E1521000E152000421DD22B8E11210076
:1047A0008E11D52B8E1521008E152200EB01EB0A00
:1047B000052CB2302000DA050E185A148C1BDA15BD
:1047C00021008E1620000E1621000E122000C21E9F
:1047D000ED2B0E1121000E11F02B0E1521000E15E0
:1047E0002000421EF72B8E1121008E11032C8E15F6
:1047F00021008E15032C22006B08003A0319B82BF8
:10480000013A0319D92B2200EB0120000D195A1788
:104810000D185A15210064080319112CE40B112CF2
:104820009D1420008D1E942C3C18F82C2100E50BC3
:10483000FB2C20004F08033A031D312C4D08063A8B
:1048400003192A2C4D08043A03192A2C4D08023A60
:10485000031D312C3330210040020318382CC00ACC
:10486000382C333021004002031C382C2000BF11AB
:1048700020004F080C3A03196B2C4F08023A031D15
:10488000411A6B2C4D08043A03196B2C4F080B3A54
:1048900003196B2C0A3059020318652CD90A590BDD
:1048A000562CBC302200C10002305E2C5908023A5E
:1048B000031D602CF4302200C1000130C200902C96
:1048C000221C3E1B5A2C2330822C221C692C2210C5
:1048D00051164630822C4F08033A031D792C4D089F
:1048E000043A0319772C4D08023A031D792C2D3018
:1048F000822C4F080C3A0319632C4F08023A031D0F
:10490000862CC8302200C100C201902C4F080B3AFF
:10491000031D8C2C411A812C4F080B3A03195A2C79
:1049200020003C143914F82C3C1CF82C2100E50B19
:10493000FB2C20004F080C3A0319D12C4F08023AE7
:10494000031D411AD12C4D08043A0319D12C4F08EC
:104950000B3A0319D12C0A3059020318C62CD90A74
:10496000590BB72CBC302200C1000230BF2C5908B3
:10497000023A031DC12CF4302200C1000130C200F4
:10498000F62C221C3E1BBB2C2330E82C3E13463059
:104990002200C100C2012000221CF62C2210511658
:1049A000F62C4F08033A031DDF2C4D08043A031977
:1049B000DD2C4D08023A031DDF2C2D30E82C4F086A
:1049C0000C3A0319C42C4F08023A031DEC2CC830D2
:1049D0002200C100C201F62C4F080B3A031DF22C35
:1049E000411AE72C4F080B3A0319BB2C20003C104E
:1049F00003302100E5002200E60B08000A30E60043
:104A000020003A1408002000B91D8A2DB91145353F
:104A1000B93E86000130870023003D0881074131FF
:104A20003E08813D7F312000C50A02304502031C4B
:104A3000782DC5012200CB0A20304B02031C782DB3
:104A400023003A082000AB00230039082000AA0008
:104A50000530AB36AA0C890B292D2200EC0A053053
:104A60006C02031C672DEC0120002B08AD002A0806
:104A7000AC00230041082000AC02230042082000C3
:104A8000AD3B2B082300C20020002A082300C100F0
:104A90002000BF1C642D2D082300C40020002C081A
:104AA0002300C300C30EC40EF030C40543080F3901
:104AB000C404F030C30520002A082300C3072000E7
:104AC0002B082300C43D672D2300C301C40122002D
:104AD000CB012000ED016D35B93E86000130870025
:104AE000810141318101ED0A02306D02031C6B2D01
:104AF00020004508413E8400A9300318013E85008E
:104B00000008013821009D00200011132100111719
:104B10000530E4002000BA1D080003302B02C3302A
:104B200003192A02031C962DC830CB2D00302B020E
:104B30001F3003192A020318A02D2200D601CD2D03
:104B4000ED016B26A5316326A5312B02031DAA2D8D
:104B500074082A02031CAE2DED0AA12D4526A531AD
:104B60002A02DD0075082B3B6F26A531FE25A531F5
:104B70002326A531031DC62D00306B02031DC62D53
:104B800001306A02031DC62D00306902031CCA2DC4
:104B9000FF30CB2D69082200D6002000ED016B26E6
:104BA000A5316326A5312F02031DD82D74082E02CE
:104BB000031CDC2DED0ACF2D4526A5312E02DD008C
:104BC00075082F3B6F26A531FE25A5312326A5317B
:104BD000031DF42D00306B02031DF42D01306A0219
:104BE000031DF42D00306902031CFA2DFF30220052
:104BF000DA00080069082200DA000800E501E60191
:104C0000E701E8015D1C0C2E6108E5076208E63D3E
:104C10006308E73D6408E83DE135E20DE30DE40D8E
:104C2000E036DF0CDE0CDD0C60085F045E045D0422
:104C3000031D022E6808E0006708DF006608DE003A
:104C40006508DD0008006008EC005F08EB005E0806
:104C5000EA005D08E9006A08E9006B08EA006C08F0
:104C6000EB00EC016D08A33E8400A8300318013E60
:104C700085000008E90701300318EA070318EB076D
:104C80000318EC0700306C0208006D35533E8400B9
:104C9000A8300318013E8500003FF400013FF500F5
:104CA0007408E9007508EA00EB01EC016D35013E7E
:104CB0008400A8300318013E8500003FF400013F46
:104CC000F500740808000318013E8500003FF40059
:104CD000013FF50008006D35033E8400A834DE0076
:104CE000DF01E0016C08E4006B08E3006A08E20001
:104CF0006908E10008002000CB08031D842E210074
:104D0000C901BD01BE01702FF91D912E4B0B912ED3
:104D10002100FA27A63128082200AD002100290829
:104D20009B2E791FA02E2100FA27A63133082200DE
:104D3000AD00210034082200AE00AF01B001702F99
:104D4000F91EC82E4B0BC82E2100FA27A6313508B4
:104D50002200AD00210036082200AE00AF01B001F4
:104D600000303002031DBE2E01302F02031DBE2E67
:104D700086302E02031DBE2EA0302D02031C702F84
:104D8000B0010130AF008630AE009F30AD00702F13
:104D9000791C702F4B0B702F2100FA27A6312A089F
:104DA0002200AD00AE01AF01B001702F3E083D04FE
:104DB000031D08002000C708031DF02E0A30F42749
:104DC000A631220030082400B50022002F0824005C
:104DD000B40022002E082400B30022002D08312F39
:104DE000470BF62E0A30F427A631FE2E4708023A6A
:104DF000031D042F0A30F427A63164302000DD00A3
:104E0000DE01DF01E001122F4708033A031D382FAE
:104E10000A30F427A6312000E001DF010330DE0074
:104E2000E830DD00220030082000E40022002F08D6
:104E30002000E30022002E082000E20022002D08BE
:104E40002000E100B527A63160082400B50020004D
:104E50005F082400B40020005E082400B300200096
:104E60005D082400B2007F27A6312E082000D8005C
:104E700058080319412F2100C90A4630BD00BE0160
:104E80000800033047020318472FC70A0800C7016C
:104E900090302100BD000130BE0008003E083D04F6
:104EA000031D08001E30BD00BE01C90A08003E08EF
:104EB0003D04031D08002000D8030319622F2100C0
:104EC000C9033D2F2100C901C90A03302000470250
:104ED0000318472FC70AC8302100BD00BE010800D3
:104EE00021004908003A03190800013A0319D62E97
:104EF000033A03194E2F013A031D0800572F3108BA
:104F000030042F042E040319AC2FF401F40AB11B52
:104F10008E2FAE35AF0DB00DB10D862F3108350295
:104F2000031D9C2F30083402031D9C2F2F083302D1
:104F3000031D9C2F2E083202031CA62F2E08B2023E
:104F40002F08B33B3008B43B3108B53BB136B00C49
:104F5000AF0CAE0CF40B8E2F3508B1003408B00046
:104F60003308AF003208AE000800E501E601E701B2
:104F7000E80160085F045E045D040319EB2FE9019A
:104F8000E90AE01BC82FDD35DE0DDF0DE00DC02F77
:104F9000E535E60DE70DE80D60086402031DDA2F24
:104FA0005F086302031DDA2F5E086202031DDA2F19
:104FB0005D086102031CE52F5D08E1025E08E23B2B
:104FC0005F08E33B6008E43B6514E036DF0CDE0C71
:104FD000DD0CE90BC82F6808E0006708DF006608F1
:104FE000DE006508DD0008002400AE00AF01B0015E
:104FF000B1010800C901C90A2000C7012100080049
:1050000000341E34003427340034313400343D344D
:1050100000344C3400345D3400347234003489344C
:105020000034A3340034C0340034E034003403349A
:105030000134283401344F34013477340134A0343E
:105040000134C9340134F23401341A3402344034A6
:1050500002346634023489340234AA340234C83447
:105060000234E5340234FF340234173403342D346F
:10507000033441340334533403346334033472341B
:1050800003347F3403348B34033496340334A03434
:105090000334A8340334B0340334B7340334BD3498
:1050A0000334C33403348E340034803400346A341F
:1050B0000034553400344B3400343C34003437343D
:1050C0000034313400342C34003428340034243497
:1050D00000342234003420340034203400341F34AF
:1050E00000341F3400341F340034203400342134A1
:1050F00000342134003424340034263400342A347B
:1051000000342C34003431340034353400343A3433
:1051100000344034003447340034503400345534C3
:105120000034623400346A3400347434003480341F
:105130000034A0340034A0340034B6340034D53404
:105140000034D5340034003405340A340F341434B8
:1051500019341E34233428342D34323437343C345B
:10516000413446344B34503455345A345F3464340B
:1051700069346E34733478347D34823487348C34BB
:10518000913496349B34A034A534AA34AF34B4346B
:10519000B934BE34C334C83400340034013400346C
:1051A0000234003403340034043400340534003451
:1051B0000634003407340034083400340934003431
:1051C0000A3400340034003461340034AB34003429
:1051D000C3340034EB3400341F340134343401342C
:1051E0004234013455340134623401340034003423
:1051F0000F3400341F340034503400346034003431
:10520000683400349134003491340034A2340034D2
:10521000BA34003400340034003400340034003434
:1052200000340034003400340934003410340034C5
:1052300022340034363400344C3400342034A13469
:105240000734003440340D340334003480343834AF
:10525000013400340034013402340334043405349E
:1052600006340734083409340A341C340234083450
:10527000073430342A34083400340034003408341D
:10528000003400340434FF3FFF3FFF3FFF3FFF3F48
:10529000FF3FFF3FFF3FFF3FFF3FFF3FFF3FFF3F1E
:1052A000FF3FFF3FFF3FFF3FFF3FFF3FFF3FFF3F0E
:1052B000FF3FFF3FFF3FFF3FFF3FFF3FFF3FFF3FFE
:1052C000FF3FFF3FFF3FFF3FFF3FFF3FFF3FFF3FEE
:020000040001F9
:04000E00DC0FEF1EF6
:08000000FF3FFF3FFF3FFF3F00
:10E000000000000060000000CC0000006E00000076
:10E010006E0000005A0001002C00A900240000003E
:10E02000000060000000CC0000006E0000006E00E8
:10E0300000005A0001002C00A9002400000000008C
:10E040000400260000000000000000000A00570045
:10E050000D0006000600DF007300030003000C0043
:10E0600072000C00720000001900CA006D00000070
:10E0700000000400260000000000000000000A006C
:10E0800057000D0006000600DF00730003000300C8
:10E090000C0072000C00720000001900CA006D0034
:10E0A000020000000000010018003600020000001D
:10E0B0000000010018003600FF00FF00FF00FF0015
:10E0C000FF00FF00FF00FF00FF00FF00FF00FF0058
:10E0D000FF00FF00FF00FF00FF00FF00FF00FF0048
:10E0E000FF00FF00FF00FF00FF00FF00FF00FF0038
:10E0F000FF00FF00FF00FF00FF00FF00FF00FF0028
:10E10000FF00FF00FF00FF00FF00FF00FF00FF0017
:10E11000FF00FF00FF00FF00FF00FF00FF00FF0007
:10E12000FF00FF00FF00FF00FF00FF00FF00FF00F7
:10E13000FF00FF00FF00FF00FF00FF00FF00FF00E7
:10E14000FF00FF00FF00FF00FF00FF00FF00FF00D7
:10E15000FF00FF00FF00FF00FF00FF00FF00FF00C7
:10E16000FF00FF00FF00FF00FF00FF00FF00FF00B7
:10E17000FF00FF00FF00FF00FF00FF00FF00FF00A7
:10E18000FF00FF00FF00FF00FF00FF00FF00FF0097
:10E19000FF00FF00FF00FF00FF00FF00FF00FF0087
:10E1A000FF00FF00FF00FF00FF00FF00FF00FF0077
:10E1B000FF00FF00FF00FF00FF00FF00FF00FF0067
:10E1C000FF00FF00FF00FF00FF00FF00FF00FF0057
:10E1D000FF00FF00FF00FF00FF00FF00FF00FF0047
:10E1E000FF00FF00FF00FF00FF00FF00FF00FF0037
:10E1F000FF00FF00FF00FF00FF00FF00FF00FF0027
:00000001FF
